:0E0000000C9434000C9400000C9400000C943E
:10000E0000000C9400000C9400000C9400000C9462
:10001E0000000C9400000C9400000C9400000C9452
:10002E0000000C9400000C9400000C9400000C9442
:10003E0000000C9400000C9400000C9400000C9432
:10004E0000000C94000001002D4E414E00494E461A
:10005E0000000100600254000000F894EE27ECBB93
:10006E00F1E0FBBFEBBFE5BF8DE0A2E0BB27ED9358
:10007E008A95E9F780E098E0A0E6ED930197E9F71D
:10008E00E0E6F0E085919591009761F0A591B5912C
:10009E0005901590BF01F00105900D920197E1F7C3
:1000AE00FB01F0CFEFE5EDBFE8E0EEBFC0E6D2E03A
:1000BE000C946100EFEFEABB10E0183C48F40E948C
:1000CE007000EBBBA8EEB3E00E948D001F5FF5CF72
:1000DE00FFCFE0916002F091610260916202709137
:1000EE006302ADE6BEE486EC91E40E949700EE5901
:1000FE00F8486F4F7F4FE0936002F0936102609378
:10010E00620270936302FB01FF770895109639F037
:10011E00A89580ED97E00197F1F71197C9F708952B
:10012E007A9F702D6B9F700DF89F700DE99F700D6B
:10013E006A9F602D710DFB9F600D711DE89F600D14
:10014E00711D8827FA9FF02D610D781FEB9FF00D22
:10015E00611D781FEA9FE02DF10D681F781F08952D
:00000001FF
