:0C0000000C942F000C9400000C940000E5
:10000C000C9400000C9400000C9400000C94000064
:10001C000C9400000C9400000C9400000C94000054
:10002C000C9400000C9400000C9400000C94000044
:10003C000C9400000C9400000C9400000C94000034
:10004C000C9400000C94000080C00200600254006C
:10005C000000F894EE27ECBBF1E0FBBFEBBFE5BF73
:10006C008DE0A2E0BB27ED938A95E9F780E098E05C
:10007C00A0E6ED930197E9F7E6E5F0E0859195911F
:10008C00009761F0A591B59105901590BF01F00115
:10009C0005900D920197E1F7FB01F0CFEFE5EDBF75
:1000AC00E8E0EEBFC0E6D2E00C945C00E0E0E4BB1C
:1000BC00A0E168D055245524E8EC5E16B0F4A52DCB
:1000CC00B0E0A050B040E3B30E9415013DD0A52D87
:1000DC00B0E0A050B0400E940901AE2F3FD0A8EE76
:1000EC00B3E00E94FF005394E7CF2ED0FFCFAA932A
:1000FC00EBB3EF70AE2FE881E07FEA2BEBBB8DE02A
:10010C008A95F1F7DA9A8DE08A95F1F7DA988DE015
:10011C008A95F1F760C0AA93A881E9DFE881E2959E
:10012C00E883A881E4DF85E88A95F1F754C0AA93A7
:10013C00E881F0E0E05AFD4FE081A981AE0FEBDFE2
:10014C004980788022960895A2E047D0ACE0E3DFA6
:10015C00A1E043D0E0E07E2E4E2E0895AA93A88114
:10016C00AA3011F0461440F0E0E0EA937394A72D06
:10017C00DEDFA881AA3079F14394D89AA881CBDF2D
:10018C00D89829C0AA93EAB3E06FEABBD29AD09A66
:10019C00D19ADA98D898D9986880E881E058E09399
:1001AC006202E881E054E0936302A4E1B0E00E94B3
:1001BC00FF0018D017D016D0A0E299DF88EC90E0A1
:1001CC000197F1F7A8E2A7DFA4E0A5DFA5E8A3DF7C
:1001DC00A6E0A1DFB9DF219608959DDFA3E0B0E092
:1001EC000C94FF00A0E383DF88EC90E00197F1F71B
:1001FC000895109639F0A89580ED97E00197F1F7E6
:10020C001197C9F70895E199FECFFF93FFB7F894C2
:10021C00AEBBBFBBE09AEDB3FFBFFF910895E19B6E
:10022C0002C0A895FCCF9FB7F894AEBBBFBBE09AB9
:10023C008DB3E81719F0EDBBE29AE19A9FBF0895D0
:00000001FF
