:0A0000000C9438000C9400000C94DE
:10000A0000000C9400000C9400000C9400000C9466
:10001A0000000C9400000C9400000C9400000C9456
:10002A0000000C9400000C9400000C9400000C9446
:10003A0000000C9400000C9400000C9400000C9436
:10004A0000000C9400000C94000001002D4E414E5B
:10005A0000494E46000080C00100600254000200C0
:10006A00640260000000F894EE27ECBBF1E0FBBFED
:10007A00EBBFE5BF8DE0A2E0BB27ED938A95E9F7D8
:10008A0080E098E0A0E6ED930197E9F7E2E6F0E078
:10009A0085919591009761F0A591B591059015907C
:1000AA00BF01F00105900D920197E1F7FB01F0CF36
:1000BA00EFE5EDBFE8E0EEBFC0E6D2E00C946500E4
:1000CA00EFEFEABBA0E10E94E70010E0183C78F4E9
:1000DA000E947D00EBBB0E94C700EBB3AE2F0E94CB
:1000EA00D300A8EEB3E00E9423011F5FEFCFFFCF3A
:1000FA00E0916002F0916102609162027091630284
:10010A00ADE6BEE486EC91E40E942D01EE59F84872
:10011A006F4F7F4FE0936002F09361026093620237
:10012A0070936302FB01FF770895AA93E5B3EF701A
:10013A00AE2FE881E07FEA2BE5BB8DE08A95F1F7E7
:10014A00AA9A8DE08A95F1F7AA988DE08A95F1F737
:10015A0065C0AA93A881E9DFE881E295E883A881CE
:10016A00E4DF85E88A95F1F759C0AA93E881F0E0BF
:10017A00EC59FD4FE081A981AE0FEBDF5980488031
:10018A0022960895A2E00E941501ACE0E2DFA1E008
:10019A000E941501E0E04E2E5E2E0895AA93A881D2
:1001AA00AA3011F0571440F0E0E0EA934394A42DEA
:1001BA00DCDFA881AA3091F15394A89AA881C9DFFB
:1001CA00A8982CC0AA93E4B3E06FE4BBA29AA09AC1
:1001DA00A19AAA98A898A9987880E881E058E0930B
:1001EA006602E881E054E0936702A4E1B0E00E946D
:1001FA0023010E941B010E941B010E941B01A0E215
:10020A0094DF88EC90E00197F1F7A8E2A2DFA4E07E
:10021A00A0DFA5E89EDFA6E09CDFB4DF2196089563
:10022A000E94AE00A3E0B0E00C942301A0E30E9478
:10023A009A0088EC90E00197F1F70895109639F04A
:10024A00A89580ED97E00197F1F71197C9F70895FE
:10025A007A9F702D6B9F700DF89F700DE99F700D3E
:10026A006A9F602D710DFB9F600D711DE89F600DE7
:10027A00711D8827FA9FF02D610D781FEB9FF00DF5
:10028A00611D781FEA9FE02DF10D681F781F089500
:00000001FF
